{
  "contractName": "UserContract",
  "abi": [
    {
      "inputs": [
        {
          "internalType": "address",
          "name": "Meta_account",
          "type": "address"
        }
      ],
      "name": "isready",
      "outputs": [
        {
          "internalType": "bool",
          "name": "",
          "type": "bool"
        }
      ],
      "stateMutability": "view",
      "type": "function"
    },
    {
      "inputs": [
        {
          "internalType": "string",
          "name": "fullname",
          "type": "string"
        },
        {
          "internalType": "string",
          "name": "country",
          "type": "string"
        },
        {
          "internalType": "string",
          "name": "email",
          "type": "string"
        },
        {
          "internalType": "string",
          "name": "bio",
          "type": "string"
        },
        {
          "internalType": "string",
          "name": "github",
          "type": "string"
        }
      ],
      "name": "creat_user",
      "outputs": [],
      "stateMutability": "nonpayable",
      "type": "function"
    }
  ],
  "bytecode": "0x608060405234801561001057600080fd5b50610a4b806100206000396000f3fe608060405234801561001057600080fd5b50600436106100365760003560e01c80637c92cbd31461003b578063d6fde43014610057575b600080fd5b610055600480360381019061005091906107ec565b610087565b005b610071600480360381019061006c9190610951565b61018d565b60405161007e9190610999565b60405180910390f35b60006040518060a00160405280878152602001868152602001858152602001848152602001838152509050806000803373ffffffffffffffffffffffffffffffffffffffff1673ffffffffffffffffffffffffffffffffffffffff168152602001908152602001600020600082015181600001908051906020019061010d9291906105ef565b50602082015181600101908051906020019061012a9291906105ef565b5060408201518160020190805190602001906101479291906105ef565b5060608201518160030190805190602001906101649291906105ef565b5060808201518160040190805190602001906101819291906105ef565b50905050505050505050565b6000806000808473ffffffffffffffffffffffffffffffffffffffff1673ffffffffffffffffffffffffffffffffffffffff16815260200190815260200160002060000180546101dc906109e3565b80601f0160208091040260200160405190810160405280929190818152602001828054610208906109e3565b80156102555780601f1061022a57610100808354040283529160200191610255565b820191906000526020600020905b81548152906001019060200180831161023857829003601f168201915b5050505050905060008060008573ffffffffffffffffffffffffffffffffffffffff1673ffffffffffffffffffffffffffffffffffffffff16815260200190815260200160002060010180546102aa906109e3565b80601f01602080910402602001604051908101604052809291908181526020018280546102d6906109e3565b80156103235780601f106102f857610100808354040283529160200191610323565b820191906000526020600020905b81548152906001019060200180831161030657829003601f168201915b5050505050905060008060008673ffffffffffffffffffffffffffffffffffffffff1673ffffffffffffffffffffffffffffffffffffffff1681526020019081526020016000206002018054610378906109e3565b80601f01602080910402602001604051908101604052809291908181526020018280546103a4906109e3565b80156103f15780601f106103c6576101008083540402835291602001916103f1565b820191906000526020600020905b8154815290600101906020018083116103d457829003601f168201915b5050505050905060008060008773ffffffffffffffffffffffffffffffffffffffff1673ffffffffffffffffffffffffffffffffffffffff1681526020019081526020016000206003018054610446906109e3565b80601f0160208091040260200160405190810160405280929190818152602001828054610472906109e3565b80156104bf5780601f10610494576101008083540402835291602001916104bf565b820191906000526020600020905b8154815290600101906020018083116104a257829003601f168201915b5050505050905060008060008873ffffffffffffffffffffffffffffffffffffffff1673ffffffffffffffffffffffffffffffffffffffff1681526020019081526020016000206004018054610514906109e3565b80601f0160208091040260200160405190810160405280929190818152602001828054610540906109e3565b801561058d5780601f106105625761010080835404028352916020019161058d565b820191906000526020600020905b81548152906001019060200180831161057057829003601f168201915b50505050509050600085511180156105a6575060008451115b80156105b3575060008351115b80156105c0575060008251115b80156105cd575060008151115b156105e0576001955050505050506105ea565b6000955050505050505b919050565b8280546105fb906109e3565b90600052602060002090601f01602090048101928261061d5760008555610664565b82601f1061063657805160ff1916838001178555610664565b82800160010185558215610664579182015b82811115610663578251825591602001919060010190610648565b5b5090506106719190610675565b5090565b5b8082111561068e576000816000905550600101610676565b5090565b6000604051905090565b600080fd5b600080fd5b600080fd5b600080fd5b6000601f19601f8301169050919050565b7f4e487b7100000000000000000000000000000000000000000000000000000000600052604160045260246000fd5b6106f9826106b0565b810181811067ffffffffffffffff82111715610718576107176106c1565b5b80604052505050565b600061072b610692565b905061073782826106f0565b919050565b600067ffffffffffffffff821115610757576107566106c1565b5b610760826106b0565b9050602081019050919050565b82818337600083830152505050565b600061078f61078a8461073c565b610721565b9050828152602081018484840111156107ab576107aa6106ab565b5b6107b684828561076d565b509392505050565b600082601f8301126107d3576107d26106a6565b5b81356107e384826020860161077c565b91505092915050565b600080600080600060a086880312156108085761080761069c565b5b600086013567ffffffffffffffff811115610826576108256106a1565b5b610832888289016107be565b955050602086013567ffffffffffffffff811115610853576108526106a1565b5b61085f888289016107be565b945050604086013567ffffffffffffffff8111156108805761087f6106a1565b5b61088c888289016107be565b935050606086013567ffffffffffffffff8111156108ad576108ac6106a1565b5b6108b9888289016107be565b925050608086013567ffffffffffffffff8111156108da576108d96106a1565b5b6108e6888289016107be565b9150509295509295909350565b600073ffffffffffffffffffffffffffffffffffffffff82169050919050565b600061091e826108f3565b9050919050565b61092e81610913565b811461093957600080fd5b50565b60008135905061094b81610925565b92915050565b6000602082840312156109675761096661069c565b5b60006109758482850161093c565b91505092915050565b60008115159050919050565b6109938161097e565b82525050565b60006020820190506109ae600083018461098a565b92915050565b7f4e487b7100000000000000000000000000000000000000000000000000000000600052602260045260246000fd5b600060028204905060018216806109fb57607f821691505b60208210811415610a0f57610a0e6109b4565b5b5091905056fea26469706673582212206e3a38d84f1371fde5ebf1e94a09e7fb50365dfefa5ec6cf600c6454e092d99564736f6c634300080b0033",
  "immutableReferences": {},
  "source": "// SPDX-License-Identifier: MIT\npragma solidity ^0.8.0;\n\n\n\ncontract UserContract {\n\n\nstruct user{\n    string fullname;\n    string country;\n    string email;\n    string bio;\n    string github;\n}\n  mapping (address => user) _users;\n\n\nfunction isready(address Meta_account) public  view returns(bool) {\n  bytes memory fullname = bytes(_users[Meta_account].fullname); \n   \n  bytes memory country = bytes(_users[Meta_account].country); \n    \n  bytes memory email = bytes(_users[Meta_account].email); \n    \n  bytes memory bio = bytes(_users[Meta_account].bio); \n   \n  bytes memory github = bytes(_users[Meta_account].github); \n\n    if(fullname.length > 0 &&  country.length > 0 && email.length > 0 && bio.length > 0 && github.length > 0 ){\n             return true;\n    }else{\n      return false;\n    }\n\n    \n}\n\nfunction creat_user(string memory fullname ,string memory country,string memory email,string memory bio,string memory github) public  {\n  user memory u =  user(fullname,country,email,bio,github);\n  _users[msg.sender] = u;\n}\n  \n}\n",
  "sourcePath": "/home/taha/Bureau/Dapp/contracts/UserContract.sol",
  "compiler": {
    "name": "solc",
    "version": "0.8.11+commit.d7f03943.Emscripten.clang"
  },
  "schemaVersion": "3.4.4",
  "updatedAt": "2022-01-10T12:04:40.489Z",
  "devdoc": {
    "kind": "dev",
    "methods": {},
    "version": 1
  },
  "userdoc": {
    "kind": "user",
    "methods": {},
    "version": 1
  }
}